S01900004261736553746174696F6E43656E7465722E737265634D
S11300000C942C000C9454000C94F70E0C943B0F9D
S11300100C9454000C9454000C9454000C94610FF0
S11300200C9454000C9454000C9454000C945400FC
S11300300C9454000C9454000C9454000C945400EC
S11300400C9454000C9454000C9454000C945400DC
S11300500C9454007E0C920C11241FBECFE5D8E002
S1130060DEBFCDBF10E0A0E6B0E0ECE1F0E202C0FC
S113007005900D92A636B107D9F723E0A6E6B0E0C5
S113008001C01D92AB3DB207E1F710E0C6E5D0E038
S113009004C02297FE010E94E40FC435D107C9F7BA
S11300A00E94940C0C9401100C940000FC01128228
S11300B01482158216821782108611861286138680
S11300C0118208950895AC980000AC9AFC018081D7
S11300D0882309F4B9C28AEB81BBAE9AAD98979A8A
S11300E0000085B3806888BB84E790E4909369003E
S11300F0809368008BE290E090936B0080936A0099
S113010010926D0010926C00AC0181E090E090932D
S11301106F0080936E0083E090E090937100809371
S1130120700080916C0090916D00817099278E60B1
S1130130A0E0B0E0BA2FA92F982F8827552760E0B8
S113014070E0842B952BA62BB72B3FE0880F991FCB
S1130150AA1FBB1F3A95D1F74091680050916900DE
S11301605F7760E070E0842B952BA62BB72B880F6C
S1130170991FAA1FBB1F880F991FAA1FBB1F880F97
S1130180991FAA1FBB1F880F991FAA1FBB1FAB98DB
S1130190A89830E225B32B7FAC01BD01442777FD3D
S11301A04395552766277727440F440F422B45BBB9
S11301B0A89A00C000C00000880F991FAA1FBB1F87
S11301C0A89800C000C00000315021F7AB9A00C0CD
S11301D000C00000AB9882E090E09093750080939B
S11301E074001092770010927600109279001092A9
S11301F0780010927B0010927A0010927D00109289
S11302007C0090937F0080937E0085E090E0909343
S113021081008093800083E090E09093830080933A
S113022082001092850010928400AB98A89830E266
S113023081E290E8A5E3B0E025B32B7FAC01BD01DA
S1130240442777FD4395552766277727440F440FA6
S1130250422B45BBA89A00C000C00000880F991F1C
S1130260AA1FBB1FA89800C000C00000315021F78E
S1130270AB9A00C000C00000AB9881E090E090937E
S11302809B0080939A0010929D0010929C00109203
S11302909F0010929E008FE390E09093A1008093C2
S11302A0A00081E290E09093A3008093A2001092BA
S11302B0A5001092A4001092A7001092A60083E05B
S11302C090E09093A9008093A800AB98A89825B3D8
S11302D02B7F30E282E19EEFA0E1B0EC44E00CC061
S11302E025B32B7FAC01BD01442777FD43955527EA
S11302F066277727440F440F422B45BBA89A00C0BA
S113030000C00000880F991FAA1FBB1FA89800C037
S113031000C00000315021F7AB9A00C000C00000BB
S1130320AB9882E090E09093C2008093C1009093D8
S1130330C4008093C30081E290E09093C600809350
S1130340C50088EC90E09093C8008093C700AB98F8
S1130350A89830E283EA91E2A8ECB0E025B32B7FC1
S1130360AC01BD01442777FD4395552766277727C0
S1130370440F440F422B45BBA89A00C000C00000A4
S1130380880F991FAA1FBB1FA89800C000C00000B7
S1130390315021F7AB9A00C000C00000AB9881E057
S11303A090E09093CD008093CC0025E030E0309332
S11303B0CF002093CE001092D1001092D0009093E1
S11303C0D3008093D200AB98A89830E284E591E002
S11303D0A0E0B1E025B32B7FAC01BD01442777FD3C
S11303E04395552766277727440F440F422B45BB77
S11303F0A89A00C000C00000880F991FAA1FBB1F45
S1130400A89800C000C00000315021F7AB9A00C08A
S113041000C00000AB9883E090E09093D8008093F4
S1130420D7001092DA001092D9008DEA92EDA4E977
S1130430B0E08093DB009093DC00A093DD00B093E8
S1130440DE00AB98A89825B32B7F30E285E39DEAC4
S1130450A2EDB4E944E00CC025B32B7FAC01BD018F
S1130460442777FD4395552766277727440F440F84
S1130470422B45BBA89A00C000C00000880F991FFA
S1130480AA1FBB1FA89800C000C00000315021F76C
S1130490AB9A00C000C00000AB988DE790E0909349
S11304A0E1008093E0001092E3001092E2001092C9
S11304B0E5001092E4001092E7001092E60010921A
S11304C0E9001092E8001092EB001092EA0080E933
S11304D091E09093ED008093EC0081E090E09093A4
S11304E0EF008093EE001092F1001092F000109251
S11304F0F3001092F200AB98A89830E286ED97E0F2
S1130500A0E0B9E325B32B7FAC01BD01442777FDFF
S11305104395552766277727440F440F422B45BB45
S1130520A89A00C000C00000880F991FAA1FBB1F13
S1130530A89800C000C00000315021F7AB9A00C059
S113054000C00000AB9883EA91E09093330180935C
S1130550320181E090E09093350180933401AB98AF
S1130560A89830E28BE39AE1A0E1B0E025B32B7FB9
S1130570AC01BD01442777FD4395552766277727AE
S1130580440F440F422B45BBA89A00C000C0000092
S1130590880F991FAA1FBB1FA89800C000C00000A5
S11305A0315021F7AB9A00C000C00000AB988EE137
S11305B090E0909311018093100186E490E0909371
S11305C013018093120110921501109214011092DC
S11305D017011092160183E090E090931901809323
S11305E0180182E090E090931B0180931A0110920D
S11305F01D0110921C01AB98A89830E289EE91E39A
S1130600A2EBB0E025B32B7FAC01BD01442777FDFD
S11306104395552766277727440F440F422B45BB44
S1130620A89A00C000C00000880F991FAA1FBB1F12
S1130630A89800C000C00000315021F7AB9A00C058
S113064000C00000AB98089582E881BB85B38F7722
S113065088BBF6E0FA95F1F700C0AE9AAD9897988A
S113066085EE9DE390936900809368008BE290E0AF
S113067090936B0080936A0081E090E090936D000A
S113068080936C0040916A0050916B003ECD2F9294
S11306903F924F925F926F927F928F929F92AF920E
S11306A0BF92CF92DF92EF92FF920F931F93CF935B
S11306B0DF93CDB7DEB760970FB6F894DEBF0FBEF9
S11306C0CDBF633009F4E8C108F452C1653009F4C0
S11306D0B3C108F468C1663009F495C18091FA0089
S11306E09091FB006091F8007091F9008170992756
S11306F0880F991F880F991F63707727862B972B74
S11307006091F6007091F700880F991F880F991F68
S113071063707727862B972B82959295907F9827E5
S1130720807F982707962C01612C712CAB98A89890
S113073070E2F88AEF8665B36B7F73016201CC24A3
S1130740F7FCC394DD24EE24FF24CC0CCC0CC62A85
S1130750C5BAA89A00C000C00000440C551C661C11
S1130760771CA89800C000C00000715021F7AB9A14
S113077000C000C00000AB98AB9AA89A000063B315
S113078061FB222720F930E0280F391F220F331F85
S1130790A8980000A89A000083B386958170898385
S11307A01A8289819A81280F391F220F331FA89832
S11307B00000A89A000083B3869581708B831C8205
S11307C0EB81FC812E0F3F1F220F331FA8980000DE
S11307D0A89A000083B381FB002700F910E0200FE2
S11307E0311F220F331FA8980000A89A000083B37A
S11307F081FBEE24E0F8F12C2E0D3F1D220F331F58
S1130800A8980000A89A000083B381FBAA27A0F946
S1130810B0E02A0F3B1F220F331FA8980000A89AAC
S1130820000083B381FBEE27E0F9F0E02E0F3F1FB9
S1130830220F331FA8980000A89A000083B381FBFD
S1130840AA24A0F8B12C2A0D3B1D220F331FA8980F
S11308500000A89A000083B381FB882480F8912CBF
S1130860280D391D220F331FA8980000A89A0000F4
S113087083B3869581708D831E828D819E81280F1E
S1130880391F220F331FA8980000A89A000083B3D1
S1130890869581708F831886EF81F8852E0F3F1F10
S11308A0220F331FA8980000A89A000083B38695EE
S11308B0817089871A8689859A85280F391F220FA6
S11308C0331FA8980000A89A000083B3869581700E
S11308D08B871C86EB85FC852E0F3F1F220F331F51
S11308E0A8980000A89A000083B3869581708D872C
S11308F01E868D859E85280F391F220F331FA898C9
S11309000000A89A000083B381FB222420F8312C34
S1130910220D331D220F331FA8980000A89A00004F
S113092083B381FB442740F950E0420F531FA8983A
S11309300000AB9A0000AB98440F551FCA016096A3
S11309400FB6F894DEBF0FBECDBFDF91CF911F91DC
S11309500F91FF90EF90DF90CF90BF90AF909F905A
S11309608F907F906F905F904F903F902F9008955D
S1130970613009F47AC080F181E090E09093F9004D
S11309808093F8009093F7008093F6009093FB0017
S11309908093FA0037E5432E55245394612C712C2F
S11309A087E591E0C3CE81E090E09093F9008093D5
S11309B0F80063E070E07093F7006093F6009093A2
S11309C0FB008093FA0097E7492E55245394612C39
S11309D0712C87E791E0AACE1092F9001092F800EA
S11309E01092F7001092F60081E090E09093FB00E3
S11309F08093FA0057E0452E55245394612C712CB2
S1130A0087E091E093CE82E090E09093F9008093A8
S1130A10F8001092F7001092F60081E090E09093B5
S1130A20FB008093FA0007E8402E55245394612C70
S1130A30712C87E891E07ACE83E090E09093F900FE
S1130A408093F8001092F7001092F60081E090E095
S1130A509093FB008093FA0087EC482E552453941E
S1130A60612C712C87EC91E061CE81E090E0909351
S1130A70F9008093F8001092F7001092F60090931A
S1130A80FB008093FA0047E4442E55245394612CD0
S1130A90712C87E491E04ACE81E090E09093F900D4
S1130AA08093F80062E070E07093F7006093F600C2
S1130AB09093FB008093FA0027E6422E552453942A
S1130AC0612C712C87E691E031CEFC0160836111C9
S1130AD00DC02BB7206A2BBF2CE025BF20E424BF18
S1130AE020EA2ABF20E129BF0C9463002BB72F70A2
S1130AF02BBF1ABE15BE14BE20E129BF0C9463009F
S1130B00FC018081811103C08385811101C0089596
S1130B108781883038F49481990F9483849B02C030
S1130B20916094838F5F8783893089F7178281E08E
S1130B3082878481858314820895FC012081211198
S1130B4002C021E023870895FC0122B3808530E1AF
S1130B50839FC00111242F7E282B22BB468148305D
S1130B6089F0838190E027E030E0241B310902C042
S1130B70959587952A95E2F78170992780874F5F2D
S1130B804683089581E09085282F291B2087928130
S1130B9093831282168281870895FC0162831186F1
S1130BA00895FC0181850895FC01128685810895CC
S1130BB0FC012285222311F08385089580E00895A5
S1130BC0FC0181E09081911180E00895FC0113867D
S1130BD00895FC016083611197C08BB7806A8BBF55
S1130BE08CE085BF80E484BF80EA8ABF80E189BF4E
S1130BF0AC980000AC9A82E881BB85B38F7788BB40
S1130C00F6E0FA95F1F700C0AE9AAD98979885EEA4
S1130C109DE390936900809368008BE290E0909349
S1130C206B0080936A0081E090E090936D00809364
S1130C306C0040916A0050916B0081E090E09093C9
S1130C406F0080936E0083E090E090937100809336
S1130C50700080916C0090916D00817099278E6076
S1130C60A0E0B0E0BA2FA92F982F8827552760E07D
S1130C7070E0842B952BA62BB72B3FE0880F991F90
S1130C80AA1FBB1F3A95D1F74091680050916900A3
S1130C905F7760E070E0842B952BA62BB72B880F31
S1130CA0991FAA1FBB1F880F991FAA1FBB1F880F5C
S1130CB0991FAA1FBB1F880F991FAA1FBB1FAB98A0
S1130CC0A89830E225B32B7FAC01BD01442777FD02
S1130CD04395552766277727440F440F422B45BB7E
S1130CE0A89A00C000C00000880F991FAA1FBB1F4C
S1130CF0A89800C000C00000315021F7AB9A00C092
S1130D0000C00000AB9808958BB78F708BBF1ABEDC
S1130D1015BE14BE80E189BFAC980000AC9A8AEB82
S1130D2081BBAE98AD9A979A000085B3806888BB62
S1130D3084E790E490936900809368008BE290E0EC
S1130D4090936B0080936A0010926D0010926C0077
S1130D50AC0173CFFC0183850895FC012181261722
S1130D6009F4ABC021E030E030939B0020939A005B
S1130D7010929D0010929C0010929F0010929E0071
S1130D80613009F4A4C008F499C0623041F42EE043
S1130D9030E03093A1002093A000FC01618381E244
S1130DA090E09093A3008093A2001092A50010926B
S1130DB0A4001092A7001092A60082E090E0909305
S1130DC0A9008093A8008091A0009091A1008F7346
S1130DD09927A0E0B0E080649860A064880F991F10
S1130DE0AA1FBB1F880F991FAA1FBB1F880F991F1B
S1130DF0AA1FBB1F40919E0050919F004F7355271F
S1130E0060E070E0842B952BA62BB72B880F991FDD
S1130E10AA1FBB1F40919C0050919D004F73552702
S1130E2060E070E0842B952BA62BB72B880F991FBD
S1130E30AA1FBB1F40919A0050919B004F735527E6
S1130E4060E070E0842B952BA62BB72B880F991F9D
S1130E50AA1FBB1F880F991FAA1FBB1F880F991FAA
S1130E60AA1FBB1F880F991FAA1FBB1F0296A11D93
S1130E70B11DAB98A89830E225B32B7FAC01BD011E
S1130E80442777FD4395552766277727440F440F5A
S1130E90422B45BBA89A00C000C00000880F991FD0
S1130EA0AA1FBB1FA89800C000C00000315021F742
S1130EB0AB9A00C000C00000AB9808952FE330E067
S1130EC03093A1002093A000FC01118268CF23E09D
S1130ED030E03093A1002093A000FC0161835FCF38
S1130EE09B0120783770211544E03407A9F070F095
S1130EF0211545E0340749F1211547E03407D1F0C5
S1130F002038344049F060E00C94AD0621153105D9
S1130F1059F461E00C94AD066F777727643171055D
S1130F20C0F762E00C94AD062115324091F360E005
S1130F300C94AD066F7777276431710520F3655102
S1130F4071096732710528F7ECCF6F777727653021
S1130F507105C8F2665071096E30710510F3D9CF6E
S1130F60FC01EF58FF4F11821082FC01ED58FF4F36
S1130F701182108208950895CF92DF92EF92FF922A
S1130F800F931F93CF93DF938C017B010E94020A7E
S1130F90F801ED58FF4F40815181E801CF58DF4FF0
S1130FA0288139814217530744F5421B530B6A01C8
S1130FB091E7C90ED11C0E94080A1C141D042CF5CB
S1130FC0E881F981E00FF11F8081F7018083888136
S1130FD0998101968137910564F01982188281E024
S1130FE0DF91CF911F910F91FF90EF90DF90CF9001
S1130FF008959983888381E0F3CF6A01C21AD30AE2
S11310000E94080A1C141D04DCF280E0E9CFFC01F4
S1131010ED58FF4F20813181DC01A20FB31F6C9387
S11310202F5F3F4F213731051CF011821082089544
S11310303183208308956F927F928F929F92AF9213
S1131040BF92CF92DF92EF92FF920F931F93CF93B1
S1131050DF935C016B013A01413751050CF44AC03E
S113106090E7692E712C00E010E083E7882E912C24
S11310708A0C9B1CE501CF58DF4F0E94020AF40141
S1131080E080F18028813981E216F30684F5E21AC2
S1131090F30AF1E7EF0EF11C0E94080A1E141F0464
S11310A0B4F488819981F501E80FF91F2081019634
S11310B0998388838137910514F0198218820F5F10
S11310C01F4FF60121936F0160167106B1F6C80136
S11310D0DF91CF911F910F91FF90EF90DF90CF9010
S11310E0BF90AF909F908F907F906F900895E21A79
S11310F0F30AD2CF4115510509F0B5CF00E010E055
S1131100E6CFCF93DF934137510504F140E750E038
S1131110EC01CD58DF4F28813981FB01460F571F61
S11311206191DC01A20FB31F6C932F5F3F4F398392
S113113028832137310524F01982188220E030E019
S1131140E417F50769F7DF91CF910895411551052B
S1131150F9F6F9CF0F931F93CF93DF938C010E947D
S1131160020AF801ED58FF4FC081D181F801EF5810
S1131170FF4F20813181C217D30764F4C21BD30B04
S1131180CF58DF4F0E94080ACE01DF91CF911F9103
S11311900F910895C21BD30B0E94080ACE01DF9160
S11311A0CF911F910F910895FC01EF58FF4F1182C9
S11311B01082FC01ED58FF4F1182108208951BBA72
S11311C08FE08ABB80E188BB88E187BB15BA8DE1DB
S11311D084BB12BA82E881BB13BE12BE1CBE1FBC04
S11311E081E08EBD1DBC1CBC17BC16BC83E08BBD4E
S11311F081E48ABD19BC18BC12BC15BC14BC13BC58
S113120080E888B910BE0895823001F128F0833057
S113121019F1843099F00895882351F08130D9F779
S11312208BB38B7FCA9B10C090E0892B8BBB089536
S11312308BB38D7FC999F8CF92E0F7CF8BB38F77BB
S1131240CF99F2CF90E8F1CF94E0EFCF8BB3877FC3
S1131250CB99EACF98E0E9CF8BB38F7ECC99E4CFDA
S113126090E1E3CF823079F030F0833071F0843054
S113127041F0D99A08958823E1F38130D1F7DA9ABD
S11312800895DF9A0895DB9A0895DC9A08958230D0
S113129079F030F0833071F0843041F0D9980895BA
S11312A08823E1F38130D1F7DA980895DF9808951F
S11312B0DB980895DC980895CF9362E081E090E094
S11312C00E94F00F62E080E090E00E94F00F8EE751
S11312D08093DD0188E08093DE0181E090E00E944C
S11312E0E80F8093DF0188E78093E0018CE380932B
S11312F0E10180E38093E2018BE48093E301C7E39F
S1131300C093E40180E58093E50180EF8093E601DA
S113131080E090E00E94E80F8093E80186EF9CE56E
S1131320A2E0B0E08093E9019093EA01A093EB017D
S1131330B093EC0186E098E8A7E1B0E08093ED017A
S11313409093EE01A093EF01B093F00184EA9BE245
S1131350A6E2B0E08093F1019093F201A093F3012F
S1131360B093F40182ED9CE4A9E4B1E08093F5012B
S11313709093F601A093F701B093F80182E3809370
S1131380E7018BEB9BEBAFEFBFEF8093F9019093F9
S1131390FA01A093FB01B093FC0181E09BEFAFEF56
S11313A0BFEF8093FD019093FE01A093FF01B093E2
S11313B0000296E49093050283E2809306028093F0
S11313C00702C09308022DE22093090229E1209329
S11313D00A028093130290931402109215028DED69
S11313E091E00E94640E9093170280931602CF91AD
S11313F0089581E08093DC01789408951092DC01D3
S1131400F89408958091DC011092DC01F894089519
S1131410811104C0F8941092DC010895789481E05D
S11314208093DC0108950F931F93CF93DF931F9252
S1131430CDB7DEB78BE192E00E94AA08892B31F484
S11314400F90DF91CF911F910F910895BE016F5FAF
S11314507F4F8BE192E00E94BC0780919A019091AA
S11314609B01FC01E456FE4F29812083009789F0FB
S1131470A4F020919D012830A9F080E090E09093A1
S11314809B0180939A010F90DF91CF911F910F914F
S1131490089520919C012E3781F78E33910568F7CA
S11314A00196EDCF8B339105D8F38BB38B7FCA9B19
S11314B035C090E0892B8BBB0091190210911A0260
S11314C060919E018091DF01861731F081E090E008
S11314D00E94F00F60919E01F8016283EFE9F1E050
S11314E020E030E080E090E04191D801A20FB31FEA
S11314F013964C9301969C0189339105A9F780E0DA
S113150090E00E94E80F8093E8018DED91E00E9445
S1131510640E9093170280931602AFCF94E0CACF63
S11315200F931F93CF93DF93CDB7DEB72D970FB6ED
S1131530F894DEBF0FBECDBF8EE789838AE08A832D
S11315408091DF018B8311E01C8381E48D8383E42C
S11315508E838BE48F83188619861A861B861C86D5
S11315601D860091DC011092DC01F89485E093E083
S11315700E949B0E27E531E04DE050E0BE016F5F15
S11315807F4F8DE893E00E94830D67E571E085E06D
S113159093E00E94CE0E8AB78F718ABF01110EC0EC
S11315A0F8941092DC012D960FB6F894DEBF0FBEAE
S11315B0CDBFDF91CF911F910F910895789410932F
S11315C0DC01F1CFFF920F931F93CF93DF93CDB73D
S11315D0DEB72E970FB6F894DEBF0FBECDBF8C01D9
S11315E0FC0120812E3761F02E960FB6F894DEBFF1
S11315F00FBECDBFDF91CF911F910F91FF90089542
S11316008181843209F45FC0F80132819091DF0155
S11316103913EACF813209F485C008F06BC08C31EC
S113162009F436C108F0DFC0813109F4ECC08B3114
S1131630D9F644E050E060E670E080E992E02E875D
S11316400E948108B8016F5F7F4F4AE050E080E953
S113165092E00E9481082E8529838AE08A83809102
S1131660DF018B8381E08C8381E48D8383E48E832B
S11316708BE48F83188619861A861B861C861D8622
S11316801091DC011092DC01F89485E093E00E9453
S11316909B0E27E531E04DE050E0BE016F5F7F4FC8
S11316A08DE893E00E94830D67E571E085E093E0A7
S11316B00E94CE0E8AB78F718ABF11117EC0F89432
S11316C01092DC0191CF92818091E80198138CCF24
S11316D01091DC011092DC01F89485E093E00E9403
S11316E09B0E6091190270911A0227E531E04CE3D8
S11316F050E0D6CF8532B1F008F064C0823291F068
S1131700833209F071CF44E050E060E670E080E994
S113171092E02E870E948108B8016F5F7F4F46E0F8
S113172050E095CF44E050E060E670E080E992E05C
S11317302E870E948108B8016F5F7F4F44E050E01C
S113174080E992E00E9481082E8529838AE08A83B9
S11317508091DF018B8311E01C8381E48D8383E41A
S11317608E838BE48F83188619861A861B861C86C3
S11317701D860091DC011092DC01F89485E093E071
S11317800E949B0E27E531E04DE050E0BE016F5F03
S11317907F4F8DE893E00E94830D67E571E085E05B
S11317A093E00E94CE0E8AB78F718ABF002309F49A
S11317B086CF78941093DC0117CF789481E08093DE
S11317C0DC0112CF863209F476C0833409F00CCFE1
S11317D0F8014381B8016C5F7F4F50E080E992E0EB
S11317E00E94810801CF8D31E9F08E3109F0FCCEE1
S11317F0C4988FE493EC0197F1F700C00000C49AF9
S11318000E94900AF1CE44E050E060E670E080E986
S113181092E02E870E948108B8016F5F7F4F43E0FA
S113182050E08ECFF090DC011092DC01F89485E05A
S113183093E00E949B0E6091190270911A0227E5B1
S113184031E04CE350E08DE893E00E94830D67E5BE
S113185071E085E093E00E94CE0E8AB78F718ABF53
S1131860FF2029F1789481E08093DC0144E050E08A
S113187060E670E080E992E00E948108B8016F5F41
S11318807F4F43E050E080E992E00E948108ACCEB3
S113189044E050E060E670E080E992E02E870E9428
S11318A08108B8016F5F7F4F4FE050E049CFF89453
S11318B01092DC01DBCFF8018381882339F0C49ACC
S11318C08EE789838AE08A839B8345CFC4981092EC
S11318D01502F6CF8DED91E00E94630E8BE192E04C
S11318E00E94BB0780E992E00E94BB0785E093E079
S11318F00E94860E8DE893E00C94820D8DE893E0AF
S11319000E94780D85E093E00E94730E80E992E0D6
S11319100E94B0078BE192E00E94B0078DED91E048
S11319200C945D0E0C946A0CCF93DF9300D01F923D
S1131930CDB7DEB70E945C0960E07BE485E993E003
S11319400E943C0E0E94DF080E94FE0960E085E0D0
S113195093E00E94920E80E00E9432092FE788E310
S113196091E0215080409040E1F700C0000080E009
S11319700E9447092FE788E391E02150804090407E
S1131980E1F700C0000080E00E9432092FE788E3FD
S113199091E0215080409040E1F700C0000080E0D9
S11319A00E9447092FE788E391E02150804090404E
S11319B0E1F700C0000080E00E9432092FE788E3CD
S11319C091E0215080409040E1F700C0000080E0A9
S11319D00E9447092FE788E391E02150804090401E
S11319E0E1F700C0000080E00E94470982997CC0B2
S11319F02FEF84E39CE0215080409040E1F700C049
S1131A00000080E00E9432090E94F9090E94130A32
S1131A1080E992E00E94AA081816190634F485E9B0
S1131A2093E00E94530E811140C080E00E9404099B
S1131A3085E093E00E94980E81110EC082E00E941E
S1131A40320985E093E00E94E70E892BF9F685E0E0
S1131A5093E00E949B0EDACF85E093E00E94F10EA2
S1131A60811133C085E093E00E94E70E8234910532
S1131A7068F282E00E94470968E973E085E093E038
S1131A800E94EA0EAE014F5F5F4F68E973E08DE894
S1131A9093E00E94EF0D882309F4B8CF69817A811D
S1131AA088E993E00E94E20AB1CFBE016D5F7F4FE7
S1131AB080E992E00E94BC07882309F4B6CF6B81C9
S1131AC085E993E00E944F0EB0CF61E085E093E09A
S1131AD00E94950E9093020280930102BC0185E05E
S1131AE093E00E94F40EBECF80E00E94320980CFC2
S1131AF0FC0181E1848382E1858384E3868386E536
S1131B00878308950895CF92DF92FF920F931F93D6
S1131B10CF93DF93DC0113961C921E9212974E33DF
S1131B20510588F44115510509F050C0F90182E4CA
S1131B3011928150E9F7DF91CF911F910F91FF909E
S1131B40DF90CF900895EC014C81F901408311821C
S1131B504DE3428310E44DE350E000E0A0E0B0E048
S1131B606B01CA0EDB1EF601F080FC01C281D38139
S1131B70CF0DD11DD383C283E601E881A20FB31F29
S1131B801396EC930F5FA02FB0E0A417B50744F3AE
S1131B9005C0F901E10FF11D10821F5F1034C9F770
S1131BA0F901E05CFF4FDC0113964C9113974083DD
S1131BB0F901EF5BFF4F12968C918083DF91CF91F7
S1131BC01F910F91FF90DF90CF9008951496EC91A0
S1131BD0E901E88319824A83142F1D5FBECFCF9396
S1131BE0DF93DB012C91FC018481281341C0119601
S1131BF03C91119720E012968C911297282B2E334A
S1131C003105B0F5FA01318320836D5F7F4F40E0E9
S1131C1050E021153105E9F0E0E080E090E0EB01CF
S1131C20C80FD91F8881480F511DEF5F8E2F90E098
S1131C3082179307A4F360E080E090E0FD01E80FD1
S1131C40F91F838180836F5F862F90E0821793074B
S1131C50ACF3FD01E05CFF4F908180E0AF5BBF4FD0
S1131C602C91BC01622B9B0181E02417350709F0FC
S1131C7080E0DF91CF9108951BB888E18AB986E8A6
S1131C8080BD10BC603885E2780719F061157B448B
S1131C9019F083E389B9089589E189B908955D9BB1
S1131CA0FECF6CB908958BB185FB882780F9089520
S1131CB08BB1881F8827881F0895FC0195AF84AFD6
S1131CC02FEF228308950895DC01DC96ED91FC91B9
S1131CD0DD978CE320E030E09191290F311D815094
S1131CE0D9F7C9010895CF93DF93EC0105960E94BB
S1131CF05600CE0143960E94B00782E18A8384E3B2
S1131D008B8386E58C83DF91CF910895CF93DF9306
S1131D10EC0143960E94BB07CE010596DF91CF915B
S1131D200C94620005960C94650505960C94470383
S1131D3005960C94E005FF920F931F93CF93DF93C6
S1131D40EC010E94020AF82E8E010B5F1F4FC8019E
S1131D500E94E005811117C060E0C8010E94E905F6
S1131D6080E992E00E94D408CE0143960E94D408F0
S1131D709AB79F719ABF8F2DDF91CF911F910F91C9
S1131D80FF900C94080A61E0C8010E94E905CE01A5
S1131D9043960E94D40819821882EACFCF93DF9326
S1131DA0EC01639642E450E0CE010E94810860E0B9
S1131DB0CE010E94070860E0CE010E94070860E09F
S1131DC0CE010E94070881E0DF91CF9108954396E8
S1131DD00C94AA0842E450E043960E941B0881E058
S1131DE0089505960C94AA0605960C9470071F9204
S1131DF00F920FB60F9211242F933F934F935F933B
S1131E006F937F938F939F93AF93BF93EF93FF93BE
S1131E108AE093E00E9480058AE093E00E94D8055E
S1131E20811111C0FF91EF91BF91AF919F918F915B
S1131E307F916F915F914F913F912F910F900FBEC2
S1131E400F901F9018958AE093E00E94D4056AEAE7
S1131E50682788E193E00E940708809117038F5F49
S1131E60809317038234F0F2109217038AE093E010
S1131E700E94E605D7CF1F920F920FB60F9211243E
S1131E802F933F934F935F936F937F938F939F937E
S1131E90AF93BF93EF93FF938AE093E00E949D0575
S1131EA0FF91EF91BF91AF919F918F917F916F912E
S1131EB05F914F913F912F910F900FBE0F901F9004
S1131EC018951F920F920FB60F9211242F933F93E0
S1131ED04F935F936F937F938F939F93AF93BF932E
S1131EE0EF93FF93CF93DF931F92CDB7DEB71DBC63
S1131EF08CE28CBD12BE8AE093E00E94E005882348
S1131F00F9F085E993E00E94580E882329F06CB11A
S1131F108BE192E00E9407080F90DF91CF91FF912F
S1131F20EF91BF91AF919F918F917F916F915F914D
S1131F304F913F912F910F900FBE0F901F901895C6
S1131F408AE093E00E94A4058AE093E00E94D10510
S1131F508823B9F280910503909106038832910594
S1131F6064F48532910531F18632910539F1879710
S1131F70E9F08AEA89836AEA0BC0BE016F5F7F4F8A
S1131F8088E193E00E94BC0769818AEA6827698333
S1131F908AE093E00E94CD058091050390910603A9
S1131FA001969093060380930503ABCF60910903D8
S1131FB06983EECF609107036983EACF60910803D8
S1131FC06983E6CFEE0FFF1F0590F491E02D09948D
S1131FD0E199FECF9FBB8EBBE09A99278DB30895FC
S1131FE0262FE199FECF9FBB8EBBE09A01970DB2DD
S1131FF0021631F02DBB0FB6F894E29AE19A0FBEA7
S1132000089510E0C6E5D0E004C0FE010E94E40F8C
S10F20102296C835D107C9F7F894FFCF19
S109201C24434D440000C2
S9030000FC
